{
  "_format": "hh-sol-artifact-1",
  "contractName": "LotteryGame",
  "sourceName": "contracts/LotteryGame.sol",
  "abi": [
    {
      "inputs": [],
      "stateMutability": "nonpayable",
      "type": "constructor"
    },
    {
      "inputs": [],
      "name": "BuyTickets",
      "outputs": [],
      "stateMutability": "payable",
      "type": "function"
    },
    {
      "inputs": [],
      "name": "CurrentWinningReward",
      "outputs": [
        {
          "internalType": "uint256",
          "name": "",
          "type": "uint256"
        }
      ],
      "stateMutability": "view",
      "type": "function"
    },
    {
      "inputs": [],
      "name": "DrawWinnerTicket",
      "outputs": [],
      "stateMutability": "nonpayable",
      "type": "function"
    },
    {
      "inputs": [],
      "name": "IsWinner",
      "outputs": [
        {
          "internalType": "bool",
          "name": "",
          "type": "bool"
        }
      ],
      "stateMutability": "view",
      "type": "function"
    },
    {
      "inputs": [],
      "name": "RefundAll",
      "outputs": [],
      "stateMutability": "nonpayable",
      "type": "function"
    },
    {
      "inputs": [],
      "name": "RemainingTickets",
      "outputs": [
        {
          "internalType": "uint256",
          "name": "",
          "type": "uint256"
        }
      ],
      "stateMutability": "view",
      "type": "function"
    },
    {
      "inputs": [],
      "name": "WithdrawCommission",
      "outputs": [],
      "stateMutability": "nonpayable",
      "type": "function"
    },
    {
      "inputs": [],
      "name": "WithdrawWinnings",
      "outputs": [],
      "stateMutability": "nonpayable",
      "type": "function"
    },
    {
      "inputs": [],
      "name": "checkWinningsAmount",
      "outputs": [
        {
          "internalType": "uint256",
          "name": "",
          "type": "uint256"
        }
      ],
      "stateMutability": "view",
      "type": "function"
    },
    {
      "inputs": [],
      "name": "duration",
      "outputs": [
        {
          "internalType": "uint256",
          "name": "",
          "type": "uint256"
        }
      ],
      "stateMutability": "view",
      "type": "function"
    },
    {
      "inputs": [],
      "name": "expiration",
      "outputs": [
        {
          "internalType": "uint256",
          "name": "",
          "type": "uint256"
        }
      ],
      "stateMutability": "view",
      "type": "function"
    },
    {
      "inputs": [],
      "name": "getTickets",
      "outputs": [
        {
          "internalType": "address[]",
          "name": "",
          "type": "address[]"
        }
      ],
      "stateMutability": "view",
      "type": "function"
    },
    {
      "inputs": [
        {
          "internalType": "address",
          "name": "addr",
          "type": "address"
        }
      ],
      "name": "getWinningsForAddress",
      "outputs": [
        {
          "internalType": "uint256",
          "name": "",
          "type": "uint256"
        }
      ],
      "stateMutability": "view",
      "type": "function"
    },
    {
      "inputs": [],
      "name": "lastWinner",
      "outputs": [
        {
          "internalType": "address",
          "name": "",
          "type": "address"
        }
      ],
      "stateMutability": "view",
      "type": "function"
    },
    {
      "inputs": [],
      "name": "lastWinnerAmount",
      "outputs": [
        {
          "internalType": "uint256",
          "name": "",
          "type": "uint256"
        }
      ],
      "stateMutability": "view",
      "type": "function"
    },
    {
      "inputs": [],
      "name": "lotteryOperator",
      "outputs": [
        {
          "internalType": "address",
          "name": "",
          "type": "address"
        }
      ],
      "stateMutability": "view",
      "type": "function"
    },
    {
      "inputs": [],
      "name": "maxTickets",
      "outputs": [
        {
          "internalType": "uint256",
          "name": "",
          "type": "uint256"
        }
      ],
      "stateMutability": "view",
      "type": "function"
    },
    {
      "inputs": [],
      "name": "operatorTotalCommission",
      "outputs": [
        {
          "internalType": "uint256",
          "name": "",
          "type": "uint256"
        }
      ],
      "stateMutability": "view",
      "type": "function"
    },
    {
      "inputs": [],
      "name": "restartDraw",
      "outputs": [],
      "stateMutability": "nonpayable",
      "type": "function"
    },
    {
      "inputs": [],
      "name": "ticketCommission",
      "outputs": [
        {
          "internalType": "uint256",
          "name": "",
          "type": "uint256"
        }
      ],
      "stateMutability": "view",
      "type": "function"
    },
    {
      "inputs": [],
      "name": "ticketPrice",
      "outputs": [
        {
          "internalType": "uint256",
          "name": "",
          "type": "uint256"
        }
      ],
      "stateMutability": "view",
      "type": "function"
    },
    {
      "inputs": [
        {
          "internalType": "uint256",
          "name": "",
          "type": "uint256"
        }
      ],
      "name": "tickets",
      "outputs": [
        {
          "internalType": "address",
          "name": "",
          "type": "address"
        }
      ],
      "stateMutability": "view",
      "type": "function"
    },
    {
      "inputs": [
        {
          "internalType": "address",
          "name": "",
          "type": "address"
        }
      ],
      "name": "winnings",
      "outputs": [
        {
          "internalType": "uint256",
          "name": "",
          "type": "uint256"
        }
      ],
      "stateMutability": "view",
      "type": "function"
    }
  ],
  "bytecode": "0x608060405260006002553480156200001657600080fd5b5033600160006101000a81548173ffffffffffffffffffffffffffffffffffffffff021916908373ffffffffffffffffffffffffffffffffffffffff16021790555061070842620000689190620000ad565b600081905550620000e8565b6000819050919050565b7f4e487b7100000000000000000000000000000000000000000000000000000000600052601160045260246000fd5b6000620000ba8262000074565b9150620000c78362000074565b9250828201905080821115620000e257620000e16200007e565b5b92915050565b611aa580620000f86000396000f3fe6080604052600436106101405760003560e01c806371827b7b116100b6578063ba946d791161006f578063ba946d79146103c1578063c6944fa0146103ec578063dd64e53414610417578063ea3a149914610454578063f261326914610491578063fe188184146104a857610140565b806371827b7b1461030857806391d8b14e1461031f57806393a563b51461032957806396c85ef3146103545780639b8947031461037f578063a88f4672146103aa57610140565b80634665096d116101085780634665096d146102085780634788af7c146102335780634ed026221461024a57806350b44712146102755780635a58acdd146102b25780636032a4f9146102dd57610140565b806306f7f3bf146101455780630789c607146101705780630fb5a6b41461019b5780631209b1f6146101c657806335580df2146101f1575b600080fd5b34801561015157600080fd5b5061015a6104d3565b6040516101679190611160565b60405180910390f35b34801561017c57600080fd5b506101856104d9565b6040516101929190611160565b60405180910390f35b3480156101a757600080fd5b506101b061052b565b6040516101bd9190611160565b60405180910390f35b3480156101d257600080fd5b506101db610531565b6040516101e89190611160565b60405180910390f35b3480156101fd57600080fd5b5061020661053c565b005b34801561021457600080fd5b5061021d61062b565b60405161022a9190611160565b60405180910390f35b34801561023f57600080fd5b50610248610631565b005b34801561025657600080fd5b5061025f610875565b60405161026c919061126b565b60405180910390f35b34801561028157600080fd5b5061029c600480360381019061029791906112be565b610903565b6040516102a991906112fa565b60405180910390f35b3480156102be57600080fd5b506102c7610942565b6040516102d491906112fa565b60405180910390f35b3480156102e957600080fd5b506102f2610968565b6040516102ff9190611160565b60405180910390f35b34801561031457600080fd5b5061031d610973565b005b610327610a93565b005b34801561033557600080fd5b5061033e610c00565b60405161034b9190611160565b60405180910390f35b34801561036057600080fd5b50610369610c19565b6040516103769190611330565b60405180910390f35b34801561038b57600080fd5b50610394610c62565b6040516103a19190611160565b60405180910390f35b3480156103b657600080fd5b506103bf610c67565b005b3480156103cd57600080fd5b506103d6610dd0565b6040516103e39190611160565b60405180910390f35b3480156103f857600080fd5b50610401610dd6565b60405161040e9190611160565b60405180910390f35b34801561042357600080fd5b5061043e60048036038101906104399190611377565b610df5565b60405161044b9190611160565b60405180910390f35b34801561046057600080fd5b5061047b60048036038101906104769190611377565b610e3e565b6040516104889190611160565b60405180910390f35b34801561049d57600080fd5b506104a6610e56565b005b3480156104b457600080fd5b506104bd610ec2565b6040516104ca91906112fa565b60405180910390f35b60045481565b6000803390506000600560008373ffffffffffffffffffffffffffffffffffffffff1673ffffffffffffffffffffffffffffffffffffffff168152602001908152602001600020549050809250505090565b61070881565b662386f26fc1000081565b600160009054906101000a900473ffffffffffffffffffffffffffffffffffffffff1673ffffffffffffffffffffffffffffffffffffffff163373ffffffffffffffffffffffffffffffffffffffff16146105cc576040517f08c379a00000000000000000000000000000000000000000000000000000000081526004016105c390611427565b60405180910390fd5b60003390506000600254905060006002819055508173ffffffffffffffffffffffffffffffffffffffff166108fc829081150290604051600060405180830381858888f19350505050158015610626573d6000803e3d6000fd5b505050565b60005481565b600060068054905011610679576040517f08c379a000000000000000000000000000000000000000000000000000000000815260040161067090611493565b60405180910390fd5b60006006805490504361068c91906114e2565b409050600042826040516020016106a4929190611562565b6040516020818303038152906040528051906020012060001c90506000600680549050826106d291906115bd565b90506000600682815481106106ea576106e96115ee565b5b9060005260206000200160009054906101000a900473ffffffffffffffffffffffffffffffffffffffff16905080600360006101000a81548173ffffffffffffffffffffffffffffffffffffffff021916908373ffffffffffffffffffffffffffffffffffffffff16021790555066038d7ea4c68000662386f26fc1000061077291906114e2565b600680549050610782919061161d565b600560008373ffffffffffffffffffffffffffffffffffffffff1673ffffffffffffffffffffffffffffffffffffffff16815260200190815260200160002060008282546107d0919061165f565b92505081905550600560008273ffffffffffffffffffffffffffffffffffffffff1673ffffffffffffffffffffffffffffffffffffffff1681526020019081526020016000205460048190555066038d7ea4c68000600680549050610835919061161d565b60026000828254610846919061165f565b925050819055506006600061085b9190611109565b61070842610869919061165f565b60008190555050505050565b606060068054806020026020016040519081016040528092919081815260200182805480156108f957602002820191906000526020600020905b8160009054906101000a900473ffffffffffffffffffffffffffffffffffffffff1673ffffffffffffffffffffffffffffffffffffffff16815260200190600101908083116108af575b5050505050905090565b6006818154811061091357600080fd5b906000526020600020016000915054906101000a900473ffffffffffffffffffffffffffffffffffffffff1681565b600160009054906101000a900473ffffffffffffffffffffffffffffffffffffffff1681565b66038d7ea4c6800081565b61097b610c19565b6109ba576040517f08c379a00000000000000000000000000000000000000000000000000000000081526004016109b1906116df565b60405180910390fd5b60003390506000600560008373ffffffffffffffffffffffffffffffffffffffff1673ffffffffffffffffffffffffffffffffffffffff1681526020019081526020016000205490506000600560008473ffffffffffffffffffffffffffffffffffffffff1673ffffffffffffffffffffffffffffffffffffffff168152602001908152602001600020819055508173ffffffffffffffffffffffffffffffffffffffff166108fc829081150290604051600060405180830381858888f19350505050158015610a8e573d6000803e3d6000fd5b505050565b6000662386f26fc1000034610aa891906115bd565b14610ab9662386f26fc10000610ee8565b604051602001610ac991906117bc565b60405160208183030381529060405290610b19576040517f08c379a0000000000000000000000000000000000000000000000000000000008152600401610b10919061183b565b60405180910390fd5b506000662386f26fc1000034610b2f919061185d565b9050610b39610c00565b811115610b7b576040517f08c379a0000000000000000000000000000000000000000000000000000000008152600401610b72906118da565b60405180910390fd5b60005b81811015610bfc576006339080600181540180825580915050600190039060005260206000200160009091909190916101000a81548173ffffffffffffffffffffffffffffffffffffffff021916908373ffffffffffffffffffffffffffffffffffffffff1602179055508080610bf4906118fa565b915050610b7e565b5050565b60006006805490506064610c1491906114e2565b905090565b600080600560003373ffffffffffffffffffffffffffffffffffffffff1673ffffffffffffffffffffffffffffffffffffffff1681526020019081526020016000205411905090565b606481565b600054421015610cac576040517f08c379a0000000000000000000000000000000000000000000000000000000008152600401610ca39061198e565b60405180910390fd5b60005b600680549050811015610dbf57600060068281548110610cd257610cd16115ee565b5b9060005260206000200160009054906101000a900473ffffffffffffffffffffffffffffffffffffffff169050600060068381548110610d1557610d146115ee565b5b9060005260206000200160006101000a81548173ffffffffffffffffffffffffffffffffffffffff021916908373ffffffffffffffffffffffffffffffffffffffff1602179055508073ffffffffffffffffffffffffffffffffffffffff166108fc662386f26fc100009081150290604051600060405180830381858888f19350505050158015610daa573d6000803e3d6000fd5b50508080610db7906118fa565b915050610caf565b5060066000610dce9190611109565b565b60025481565b6000662386f26fc10000600680549050610df0919061161d565b905090565b6000600560008373ffffffffffffffffffffffffffffffffffffffff1673ffffffffffffffffffffffffffffffffffffffff168152602001908152602001600020549050919050565b60056020528060005260406000206000915090505481565b600060068054905014610e9e576040517f08c379a0000000000000000000000000000000000000000000000000000000008152600401610e9590611a20565b60405180910390fd5b60066000610eac9190611109565b61070842610eba919061165f565b600081905550565b600360009054906101000a900473ffffffffffffffffffffffffffffffffffffffff1681565b606060006001610ef784610fb6565b01905060008167ffffffffffffffff811115610f1657610f15611a40565b5b6040519080825280601f01601f191660200182016040528015610f485781602001600182028036833780820191505090505b509050600082602001820190505b600115610fab578080600190039150507f3031323334353637383961626364656600000000000000000000000000000000600a86061a8153600a8581610f9f57610f9e61158e565b5b04945060008503610f56575b819350505050919050565b600080600090507a184f03e93ff9f4daa797ed6e38ed64bf6a1f0100000000000000008310611014577a184f03e93ff9f4daa797ed6e38ed64bf6a1f010000000000000000838161100a5761100961158e565b5b0492506040810190505b6d04ee2d6d415b85acef81000000008310611051576d04ee2d6d415b85acef810000000083816110475761104661158e565b5b0492506020810190505b662386f26fc10000831061108057662386f26fc1000083816110765761107561158e565b5b0492506010810190505b6305f5e10083106110a9576305f5e100838161109f5761109e61158e565b5b0492506008810190505b61271083106110ce5761271083816110c4576110c361158e565b5b0492506004810190505b606483106110f157606483816110e7576110e661158e565b5b0492506002810190505b600a8310611100576001810190505b80915050919050565b5080546000825590600052602060002090810190611127919061112a565b50565b5b8082111561114357600081600090555060010161112b565b5090565b6000819050919050565b61115a81611147565b82525050565b60006020820190506111756000830184611151565b92915050565b600081519050919050565b600082825260208201905092915050565b6000819050602082019050919050565b600073ffffffffffffffffffffffffffffffffffffffff82169050919050565b60006111d2826111a7565b9050919050565b6111e2816111c7565b82525050565b60006111f483836111d9565b60208301905092915050565b6000602082019050919050565b60006112188261117b565b6112228185611186565b935061122d83611197565b8060005b8381101561125e57815161124588826111e8565b975061125083611200565b925050600181019050611231565b5085935050505092915050565b60006020820190508181036000830152611285818461120d565b905092915050565b600080fd5b61129b81611147565b81146112a657600080fd5b50565b6000813590506112b881611292565b92915050565b6000602082840312156112d4576112d361128d565b5b60006112e2848285016112a9565b91505092915050565b6112f4816111c7565b82525050565b600060208201905061130f60008301846112eb565b92915050565b60008115159050919050565b61132a81611315565b82525050565b60006020820190506113456000830184611321565b92915050565b611354816111c7565b811461135f57600080fd5b50565b6000813590506113718161134b565b92915050565b60006020828403121561138d5761138c61128d565b5b600061139b84828501611362565b91505092915050565b600082825260208201905092915050565b7f4f6e6c7920746865206c6f7474657279206f70657261746f722063616e20646f60008201527f2074686973000000000000000000000000000000000000000000000000000000602082015250565b60006114116025836113a4565b915061141c826113b5565b604082019050919050565b6000602082019050818103600083015261144081611404565b9050919050565b7f4e6f207469636b65747320776572652070757263686173656400000000000000600082015250565b600061147d6019836113a4565b915061148882611447565b602082019050919050565b600060208201905081810360008301526114ac81611470565b9050919050565b7f4e487b7100000000000000000000000000000000000000000000000000000000600052601160045260246000fd5b60006114ed82611147565b91506114f883611147565b92508282039050818111156115105761150f6114b3565b5b92915050565b6000819050919050565b61153161152c82611147565b611516565b82525050565b6000819050919050565b6000819050919050565b61155c61155782611537565b611541565b82525050565b600061156e8285611520565b60208201915061157e828461154b565b6020820191508190509392505050565b7f4e487b7100000000000000000000000000000000000000000000000000000000600052601260045260246000fd5b60006115c882611147565b91506115d383611147565b9250826115e3576115e261158e565b5b828206905092915050565b7f4e487b7100000000000000000000000000000000000000000000000000000000600052603260045260246000fd5b600061162882611147565b915061163383611147565b925082820261164181611147565b91508282048414831517611658576116576114b3565b5b5092915050565b600061166a82611147565b915061167583611147565b925082820190508082111561168d5761168c6114b3565b5b92915050565b7f4f6e6c79207468652077696e6e65722063616e20646f20746869730000000000600082015250565b60006116c9601b836113a4565b91506116d482611693565b602082019050919050565b600060208201905081810360008301526116f8816116bc565b9050919050565b7f7468652076616c7565206d757374206265206d756c7469706c65206f66200000815250565b600081519050919050565b600081905092915050565b60005b8381101561175957808201518184015260208101905061173e565b60008484015250505050565b600061177082611725565b61177a8185611730565b935061178a81856020860161173b565b80840191505092915050565b7f2045746865720000000000000000000000000000000000000000000000000000815250565b60006117c7826116ff565b601e820191506117d78284611765565b91506117e282611796565b60068201915081905092915050565b6000601f19601f8301169050919050565b600061180d82611725565b61181781856113a4565b935061182781856020860161173b565b611830816117f1565b840191505092915050565b600060208201905081810360008301526118558184611802565b905092915050565b600061186882611147565b915061187383611147565b9250826118835761188261158e565b5b828204905092915050565b7f4e6f7420656e6f756768207469636b65747320617661696c61626c652e000000600082015250565b60006118c4601d836113a4565b91506118cf8261188e565b602082019050919050565b600060208201905081810360008301526118f3816118b7565b9050919050565b600061190582611147565b91507fffffffffffffffffffffffffffffffffffffffffffffffffffffffffffffffff8203611937576119366114b3565b5b600182019050919050565b7f746865206c6f7474657279206e6f742065787069726564207965740000000000600082015250565b6000611978601b836113a4565b915061198382611942565b602082019050919050565b600060208201905081810360008301526119a78161196b565b9050919050565b7f43616e6e6f74205265737461727420447261772061732044726177206973206960008201527f6e20706c61790000000000000000000000000000000000000000000000000000602082015250565b6000611a0a6026836113a4565b9150611a15826119ae565b604082019050919050565b60006020820190508181036000830152611a39816119fd565b9050919050565b7f4e487b7100000000000000000000000000000000000000000000000000000000600052604160045260246000fdfea2646970667358221220801b30d26a04300f239c4f5b7bb4c118ed166c0c8d6f25842a85520f192666cf64736f6c63430008110033",
  "linkReferences": {},
  "deployedLinkReferences": {}
}