{
  "_format": "hh-sol-artifact-1",
  "contractName": "LotteryGame",
  "sourceName": "contracts/LotteryGame.sol",
  "abi": [
    {
      "inputs": [],
      "stateMutability": "nonpayable",
      "type": "constructor"
    },
    {
      "inputs": [],
      "name": "BuyTickets",
      "outputs": [],
      "stateMutability": "payable",
      "type": "function"
    },
    {
      "inputs": [],
      "name": "CurrentWinningReward",
      "outputs": [
        {
          "internalType": "uint256",
          "name": "",
          "type": "uint256"
        }
      ],
      "stateMutability": "view",
      "type": "function"
    },
    {
      "inputs": [],
      "name": "DrawWinnerTicket",
      "outputs": [],
      "stateMutability": "nonpayable",
      "type": "function"
    },
    {
      "inputs": [],
      "name": "IsWinner",
      "outputs": [
        {
          "internalType": "bool",
          "name": "",
          "type": "bool"
        }
      ],
      "stateMutability": "view",
      "type": "function"
    },
    {
      "inputs": [],
      "name": "RefundAll",
      "outputs": [],
      "stateMutability": "nonpayable",
      "type": "function"
    },
    {
      "inputs": [],
      "name": "RemainingTickets",
      "outputs": [
        {
          "internalType": "uint256",
          "name": "",
          "type": "uint256"
        }
      ],
      "stateMutability": "view",
      "type": "function"
    },
    {
      "inputs": [],
      "name": "WithdrawCommission",
      "outputs": [],
      "stateMutability": "nonpayable",
      "type": "function"
    },
    {
      "inputs": [],
      "name": "WithdrawWinnings",
      "outputs": [],
      "stateMutability": "nonpayable",
      "type": "function"
    },
    {
      "inputs": [],
      "name": "checkWinningsAmount",
      "outputs": [
        {
          "internalType": "uint256",
          "name": "",
          "type": "uint256"
        }
      ],
      "stateMutability": "view",
      "type": "function"
    },
    {
      "inputs": [],
      "name": "duration",
      "outputs": [
        {
          "internalType": "uint256",
          "name": "",
          "type": "uint256"
        }
      ],
      "stateMutability": "view",
      "type": "function"
    },
    {
      "inputs": [],
      "name": "expiration",
      "outputs": [
        {
          "internalType": "uint256",
          "name": "",
          "type": "uint256"
        }
      ],
      "stateMutability": "view",
      "type": "function"
    },
    {
      "inputs": [],
      "name": "getTickets",
      "outputs": [
        {
          "internalType": "address[]",
          "name": "",
          "type": "address[]"
        }
      ],
      "stateMutability": "view",
      "type": "function"
    },
    {
      "inputs": [
        {
          "internalType": "address",
          "name": "addr",
          "type": "address"
        }
      ],
      "name": "getWinningsForAddress",
      "outputs": [
        {
          "internalType": "uint256",
          "name": "",
          "type": "uint256"
        }
      ],
      "stateMutability": "view",
      "type": "function"
    },
    {
      "inputs": [],
      "name": "lastWinner",
      "outputs": [
        {
          "internalType": "address",
          "name": "",
          "type": "address"
        }
      ],
      "stateMutability": "view",
      "type": "function"
    },
    {
      "inputs": [],
      "name": "lastWinnerAmount",
      "outputs": [
        {
          "internalType": "uint256",
          "name": "",
          "type": "uint256"
        }
      ],
      "stateMutability": "view",
      "type": "function"
    },
    {
      "inputs": [],
      "name": "lotteryOperator",
      "outputs": [
        {
          "internalType": "address",
          "name": "",
          "type": "address"
        }
      ],
      "stateMutability": "view",
      "type": "function"
    },
    {
      "inputs": [],
      "name": "maxTickets",
      "outputs": [
        {
          "internalType": "uint256",
          "name": "",
          "type": "uint256"
        }
      ],
      "stateMutability": "view",
      "type": "function"
    },
    {
      "inputs": [],
      "name": "operatorTotalCommission",
      "outputs": [
        {
          "internalType": "uint256",
          "name": "",
          "type": "uint256"
        }
      ],
      "stateMutability": "view",
      "type": "function"
    },
    {
      "inputs": [],
      "name": "restartDraw",
      "outputs": [],
      "stateMutability": "nonpayable",
      "type": "function"
    },
    {
      "inputs": [],
      "name": "ticketCommission",
      "outputs": [
        {
          "internalType": "uint256",
          "name": "",
          "type": "uint256"
        }
      ],
      "stateMutability": "view",
      "type": "function"
    },
    {
      "inputs": [],
      "name": "ticketPrice",
      "outputs": [
        {
          "internalType": "uint256",
          "name": "",
          "type": "uint256"
        }
      ],
      "stateMutability": "view",
      "type": "function"
    },
    {
      "inputs": [
        {
          "internalType": "uint256",
          "name": "",
          "type": "uint256"
        }
      ],
      "name": "tickets",
      "outputs": [
        {
          "internalType": "address",
          "name": "",
          "type": "address"
        }
      ],
      "stateMutability": "view",
      "type": "function"
    },
    {
      "inputs": [
        {
          "internalType": "address",
          "name": "",
          "type": "address"
        }
      ],
      "name": "winnings",
      "outputs": [
        {
          "internalType": "uint256",
          "name": "",
          "type": "uint256"
        }
      ],
      "stateMutability": "view",
      "type": "function"
    }
  ],
  "bytecode": "0x608060405260006002553480156200001657600080fd5b5033600160006101000a81548173ffffffffffffffffffffffffffffffffffffffff021916908373ffffffffffffffffffffffffffffffffffffffff16021790555061070842620000689190620000ad565b600081905550620000e8565b6000819050919050565b7f4e487b7100000000000000000000000000000000000000000000000000000000600052601160045260246000fd5b6000620000ba8262000074565b9150620000c78362000074565b9250828201905080821115620000e257620000e16200007e565b5b92915050565b611bc580620000f86000396000f3fe6080604052600436106101405760003560e01c806371827b7b116100b6578063ba946d791161006f578063ba946d79146103c1578063c6944fa0146103ec578063dd64e53414610417578063ea3a149914610454578063f261326914610491578063fe188184146104a857610140565b806371827b7b1461030857806391d8b14e1461031f57806393a563b51461032957806396c85ef3146103545780639b8947031461037f578063a88f4672146103aa57610140565b80634665096d116101085780634665096d146102085780634788af7c146102335780634ed026221461024a57806350b44712146102755780635a58acdd146102b25780636032a4f9146102dd57610140565b806306f7f3bf146101455780630789c607146101705780630fb5a6b41461019b5780631209b1f6146101c657806335580df2146101f1575b600080fd5b34801561015157600080fd5b5061015a6104d3565b6040516101679190611280565b60405180910390f35b34801561017c57600080fd5b506101856104d9565b6040516101929190611280565b60405180910390f35b3480156101a757600080fd5b506101b061052b565b6040516101bd9190611280565b60405180910390f35b3480156101d257600080fd5b506101db610531565b6040516101e89190611280565b60405180910390f35b3480156101fd57600080fd5b5061020661053c565b005b34801561021457600080fd5b5061021d61062b565b60405161022a9190611280565b60405180910390f35b34801561023f57600080fd5b50610248610631565b005b34801561025657600080fd5b5061025f610905565b60405161026c919061138b565b60405180910390f35b34801561028157600080fd5b5061029c600480360381019061029791906113de565b610993565b6040516102a9919061141a565b60405180910390f35b3480156102be57600080fd5b506102c76109d2565b6040516102d4919061141a565b60405180910390f35b3480156102e957600080fd5b506102f26109f8565b6040516102ff9190611280565b60405180910390f35b34801561031457600080fd5b5061031d610a03565b005b610327610b23565b005b34801561033557600080fd5b5061033e610c90565b60405161034b9190611280565b60405180910390f35b34801561036057600080fd5b50610369610ca9565b6040516103769190611450565b60405180910390f35b34801561038b57600080fd5b50610394610cf2565b6040516103a19190611280565b60405180910390f35b3480156103b657600080fd5b506103bf610cf7565b005b3480156103cd57600080fd5b506103d6610e60565b6040516103e39190611280565b60405180910390f35b3480156103f857600080fd5b50610401610e66565b60405161040e9190611280565b60405180910390f35b34801561042357600080fd5b5061043e60048036038101906104399190611497565b610e85565b60405161044b9190611280565b60405180910390f35b34801561046057600080fd5b5061047b60048036038101906104769190611497565b610ece565b6040516104889190611280565b60405180910390f35b34801561049d57600080fd5b506104a6610ee6565b005b3480156104b457600080fd5b506104bd610fe2565b6040516104ca919061141a565b60405180910390f35b60045481565b6000803390506000600560008373ffffffffffffffffffffffffffffffffffffffff1673ffffffffffffffffffffffffffffffffffffffff168152602001908152602001600020549050809250505090565b61070881565b662386f26fc1000081565b600160009054906101000a900473ffffffffffffffffffffffffffffffffffffffff1673ffffffffffffffffffffffffffffffffffffffff163373ffffffffffffffffffffffffffffffffffffffff16146105cc576040517f08c379a00000000000000000000000000000000000000000000000000000000081526004016105c390611547565b60405180910390fd5b60003390506000600254905060006002819055508173ffffffffffffffffffffffffffffffffffffffff166108fc829081150290604051600060405180830381858888f19350505050158015610626573d6000803e3d6000fd5b505050565b60005481565b600160009054906101000a900473ffffffffffffffffffffffffffffffffffffffff1673ffffffffffffffffffffffffffffffffffffffff163373ffffffffffffffffffffffffffffffffffffffff16146106c1576040517f08c379a00000000000000000000000000000000000000000000000000000000081526004016106b890611547565b60405180910390fd5b600060068054905011610709576040517f08c379a0000000000000000000000000000000000000000000000000000000008152600401610700906115b3565b60405180910390fd5b60006006805490504361071c9190611602565b40905060004282604051602001610734929190611682565b6040516020818303038152906040528051906020012060001c905060006006805490508261076291906116dd565b905060006006828154811061077a5761077961170e565b5b9060005260206000200160009054906101000a900473ffffffffffffffffffffffffffffffffffffffff16905080600360006101000a81548173ffffffffffffffffffffffffffffffffffffffff021916908373ffffffffffffffffffffffffffffffffffffffff16021790555066038d7ea4c68000662386f26fc100006108029190611602565b600680549050610812919061173d565b600560008373ffffffffffffffffffffffffffffffffffffffff1673ffffffffffffffffffffffffffffffffffffffff1681526020019081526020016000206000828254610860919061177f565b92505081905550600560008273ffffffffffffffffffffffffffffffffffffffff1673ffffffffffffffffffffffffffffffffffffffff1681526020019081526020016000205460048190555066038d7ea4c680006006805490506108c5919061173d565b600260008282546108d6919061177f565b92505081905550600660006108eb9190611229565b610708426108f9919061177f565b60008190555050505050565b6060600680548060200260200160405190810160405280929190818152602001828054801561098957602002820191906000526020600020905b8160009054906101000a900473ffffffffffffffffffffffffffffffffffffffff1673ffffffffffffffffffffffffffffffffffffffff168152602001906001019080831161093f575b5050505050905090565b600681815481106109a357600080fd5b906000526020600020016000915054906101000a900473ffffffffffffffffffffffffffffffffffffffff1681565b600160009054906101000a900473ffffffffffffffffffffffffffffffffffffffff1681565b66038d7ea4c6800081565b610a0b610ca9565b610a4a576040517f08c379a0000000000000000000000000000000000000000000000000000000008152600401610a41906117ff565b60405180910390fd5b60003390506000600560008373ffffffffffffffffffffffffffffffffffffffff1673ffffffffffffffffffffffffffffffffffffffff1681526020019081526020016000205490506000600560008473ffffffffffffffffffffffffffffffffffffffff1673ffffffffffffffffffffffffffffffffffffffff168152602001908152602001600020819055508173ffffffffffffffffffffffffffffffffffffffff166108fc829081150290604051600060405180830381858888f19350505050158015610b1e573d6000803e3d6000fd5b505050565b6000662386f26fc1000034610b3891906116dd565b14610b49662386f26fc10000611008565b604051602001610b5991906118dc565b60405160208183030381529060405290610ba9576040517f08c379a0000000000000000000000000000000000000000000000000000000008152600401610ba0919061195b565b60405180910390fd5b506000662386f26fc1000034610bbf919061197d565b9050610bc9610c90565b811115610c0b576040517f08c379a0000000000000000000000000000000000000000000000000000000008152600401610c02906119fa565b60405180910390fd5b60005b81811015610c8c576006339080600181540180825580915050600190039060005260206000200160009091909190916101000a81548173ffffffffffffffffffffffffffffffffffffffff021916908373ffffffffffffffffffffffffffffffffffffffff1602179055508080610c8490611a1a565b915050610c0e565b5050565b60006006805490506064610ca49190611602565b905090565b600080600560003373ffffffffffffffffffffffffffffffffffffffff1673ffffffffffffffffffffffffffffffffffffffff1681526020019081526020016000205411905090565b606481565b600054421015610d3c576040517f08c379a0000000000000000000000000000000000000000000000000000000008152600401610d3390611aae565b60405180910390fd5b60005b600680549050811015610e4f57600060068281548110610d6257610d6161170e565b5b9060005260206000200160009054906101000a900473ffffffffffffffffffffffffffffffffffffffff169050600060068381548110610da557610da461170e565b5b9060005260206000200160006101000a81548173ffffffffffffffffffffffffffffffffffffffff021916908373ffffffffffffffffffffffffffffffffffffffff1602179055508073ffffffffffffffffffffffffffffffffffffffff166108fc662386f26fc100009081150290604051600060405180830381858888f19350505050158015610e3a573d6000803e3d6000fd5b50508080610e4790611a1a565b915050610d3f565b5060066000610e5e9190611229565b565b60025481565b6000662386f26fc10000600680549050610e80919061173d565b905090565b6000600560008373ffffffffffffffffffffffffffffffffffffffff1673ffffffffffffffffffffffffffffffffffffffff168152602001908152602001600020549050919050565b60056020528060005260406000206000915090505481565b600160009054906101000a900473ffffffffffffffffffffffffffffffffffffffff1673ffffffffffffffffffffffffffffffffffffffff163373ffffffffffffffffffffffffffffffffffffffff1614610f76576040517f08c379a0000000000000000000000000000000000000000000000000000000008152600401610f6d90611547565b60405180910390fd5b600060068054905014610fbe576040517f08c379a0000000000000000000000000000000000000000000000000000000008152600401610fb590611b40565b60405180910390fd5b60066000610fcc9190611229565b61070842610fda919061177f565b600081905550565b600360009054906101000a900473ffffffffffffffffffffffffffffffffffffffff1681565b606060006001611017846110d6565b01905060008167ffffffffffffffff81111561103657611035611b60565b5b6040519080825280601f01601f1916602001820160405280156110685781602001600182028036833780820191505090505b509050600082602001820190505b6001156110cb578080600190039150507f3031323334353637383961626364656600000000000000000000000000000000600a86061a8153600a85816110bf576110be6116ae565b5b04945060008503611076575b819350505050919050565b600080600090507a184f03e93ff9f4daa797ed6e38ed64bf6a1f0100000000000000008310611134577a184f03e93ff9f4daa797ed6e38ed64bf6a1f010000000000000000838161112a576111296116ae565b5b0492506040810190505b6d04ee2d6d415b85acef81000000008310611171576d04ee2d6d415b85acef81000000008381611167576111666116ae565b5b0492506020810190505b662386f26fc1000083106111a057662386f26fc100008381611196576111956116ae565b5b0492506010810190505b6305f5e10083106111c9576305f5e10083816111bf576111be6116ae565b5b0492506008810190505b61271083106111ee5761271083816111e4576111e36116ae565b5b0492506004810190505b606483106112115760648381611207576112066116ae565b5b0492506002810190505b600a8310611220576001810190505b80915050919050565b5080546000825590600052602060002090810190611247919061124a565b50565b5b8082111561126357600081600090555060010161124b565b5090565b6000819050919050565b61127a81611267565b82525050565b60006020820190506112956000830184611271565b92915050565b600081519050919050565b600082825260208201905092915050565b6000819050602082019050919050565b600073ffffffffffffffffffffffffffffffffffffffff82169050919050565b60006112f2826112c7565b9050919050565b611302816112e7565b82525050565b600061131483836112f9565b60208301905092915050565b6000602082019050919050565b60006113388261129b565b61134281856112a6565b935061134d836112b7565b8060005b8381101561137e5781516113658882611308565b975061137083611320565b925050600181019050611351565b5085935050505092915050565b600060208201905081810360008301526113a5818461132d565b905092915050565b600080fd5b6113bb81611267565b81146113c657600080fd5b50565b6000813590506113d8816113b2565b92915050565b6000602082840312156113f4576113f36113ad565b5b6000611402848285016113c9565b91505092915050565b611414816112e7565b82525050565b600060208201905061142f600083018461140b565b92915050565b60008115159050919050565b61144a81611435565b82525050565b60006020820190506114656000830184611441565b92915050565b611474816112e7565b811461147f57600080fd5b50565b6000813590506114918161146b565b92915050565b6000602082840312156114ad576114ac6113ad565b5b60006114bb84828501611482565b91505092915050565b600082825260208201905092915050565b7f4f6e6c7920746865206c6f7474657279206f70657261746f722063616e20646f60008201527f2074686973000000000000000000000000000000000000000000000000000000602082015250565b60006115316025836114c4565b915061153c826114d5565b604082019050919050565b6000602082019050818103600083015261156081611524565b9050919050565b7f4e6f207469636b65747320776572652070757263686173656400000000000000600082015250565b600061159d6019836114c4565b91506115a882611567565b602082019050919050565b600060208201905081810360008301526115cc81611590565b9050919050565b7f4e487b7100000000000000000000000000000000000000000000000000000000600052601160045260246000fd5b600061160d82611267565b915061161883611267565b92508282039050818111156116305761162f6115d3565b5b92915050565b6000819050919050565b61165161164c82611267565b611636565b82525050565b6000819050919050565b6000819050919050565b61167c61167782611657565b611661565b82525050565b600061168e8285611640565b60208201915061169e828461166b565b6020820191508190509392505050565b7f4e487b7100000000000000000000000000000000000000000000000000000000600052601260045260246000fd5b60006116e882611267565b91506116f383611267565b925082611703576117026116ae565b5b828206905092915050565b7f4e487b7100000000000000000000000000000000000000000000000000000000600052603260045260246000fd5b600061174882611267565b915061175383611267565b925082820261176181611267565b91508282048414831517611778576117776115d3565b5b5092915050565b600061178a82611267565b915061179583611267565b92508282019050808211156117ad576117ac6115d3565b5b92915050565b7f4f6e6c79207468652077696e6e65722063616e20646f20746869730000000000600082015250565b60006117e9601b836114c4565b91506117f4826117b3565b602082019050919050565b60006020820190508181036000830152611818816117dc565b9050919050565b7f7468652076616c7565206d757374206265206d756c7469706c65206f66200000815250565b600081519050919050565b600081905092915050565b60005b8381101561187957808201518184015260208101905061185e565b60008484015250505050565b600061189082611845565b61189a8185611850565b93506118aa81856020860161185b565b80840191505092915050565b7f2045746865720000000000000000000000000000000000000000000000000000815250565b60006118e78261181f565b601e820191506118f78284611885565b9150611902826118b6565b60068201915081905092915050565b6000601f19601f8301169050919050565b600061192d82611845565b61193781856114c4565b935061194781856020860161185b565b61195081611911565b840191505092915050565b600060208201905081810360008301526119758184611922565b905092915050565b600061198882611267565b915061199383611267565b9250826119a3576119a26116ae565b5b828204905092915050565b7f4e6f7420656e6f756768207469636b65747320617661696c61626c652e000000600082015250565b60006119e4601d836114c4565b91506119ef826119ae565b602082019050919050565b60006020820190508181036000830152611a13816119d7565b9050919050565b6000611a2582611267565b91507fffffffffffffffffffffffffffffffffffffffffffffffffffffffffffffffff8203611a5757611a566115d3565b5b600182019050919050565b7f746865206c6f7474657279206e6f742065787069726564207965740000000000600082015250565b6000611a98601b836114c4565b9150611aa382611a62565b602082019050919050565b60006020820190508181036000830152611ac781611a8b565b9050919050565b7f43616e6e6f74205265737461727420447261772061732044726177206973206960008201527f6e20706c61790000000000000000000000000000000000000000000000000000602082015250565b6000611b2a6026836114c4565b9150611b3582611ace565b604082019050919050565b60006020820190508181036000830152611b5981611b1d565b9050919050565b7f4e487b7100000000000000000000000000000000000000000000000000000000600052604160045260246000fdfea2646970667358221220958aa1d78219cbdb6cb0d17b2dd79f95113e0d51299fbb2f3308d9cf067b1bdf64736f6c63430008110033",
  "linkReferences": {},
  "deployedLinkReferences": {}
}